{
  "contractName": "CryptoTunes",
  "abi": [
    {
      "constant": false,
      "inputs": [],
      "name": "unpause",
      "outputs": [],
      "payable": false,
      "stateMutability": "nonpayable",
      "type": "function"
    },
    {
      "constant": true,
      "inputs": [],
      "name": "paused",
      "outputs": [
        {
          "name": "",
          "type": "bool"
        }
      ],
      "payable": false,
      "stateMutability": "view",
      "type": "function"
    },
    {
      "constant": false,
      "inputs": [],
      "name": "pause",
      "outputs": [],
      "payable": false,
      "stateMutability": "nonpayable",
      "type": "function"
    },
    {
      "constant": true,
      "inputs": [],
      "name": "owner",
      "outputs": [
        {
          "name": "",
          "type": "address"
        }
      ],
      "payable": false,
      "stateMutability": "view",
      "type": "function"
    },
    {
      "constant": false,
      "inputs": [
        {
          "name": "newOwner",
          "type": "address"
        }
      ],
      "name": "transferOwnership",
      "outputs": [],
      "payable": false,
      "stateMutability": "nonpayable",
      "type": "function"
    },
    {
      "inputs": [],
      "payable": false,
      "stateMutability": "nonpayable",
      "type": "constructor"
    },
    {
      "anonymous": false,
      "inputs": [],
      "name": "Pause",
      "type": "event"
    },
    {
      "anonymous": false,
      "inputs": [],
      "name": "Unpause",
      "type": "event"
    },
    {
      "anonymous": false,
      "inputs": [
        {
          "indexed": true,
          "name": "previousOwner",
          "type": "address"
        },
        {
          "indexed": true,
          "name": "newOwner",
          "type": "address"
        }
      ],
      "name": "OwnershipTransferred",
      "type": "event"
    },
    {
      "constant": true,
      "inputs": [
        {
          "name": "_id",
          "type": "uint256"
        }
      ],
      "name": "getTune",
      "outputs": [
        {
          "name": "",
          "type": "uint256"
        },
        {
          "name": "",
          "type": "uint256"
        },
        {
          "name": "",
          "type": "uint256"
        },
        {
          "name": "",
          "type": "uint256"
        },
        {
          "name": "",
          "type": "uint256"
        },
        {
          "name": "",
          "type": "uint256"
        },
        {
          "name": "",
          "type": "uint256"
        },
        {
          "name": "",
          "type": "uint256"
        },
        {
          "name": "",
          "type": "address"
        },
        {
          "name": "",
          "type": "uint256"
        }
      ],
      "payable": false,
      "stateMutability": "view",
      "type": "function"
    },
    {
      "constant": true,
      "inputs": [],
      "name": "getTunesLength",
      "outputs": [
        {
          "name": "",
          "type": "uint256"
        }
      ],
      "payable": false,
      "stateMutability": "view",
      "type": "function"
    },
    {
      "constant": false,
      "inputs": [
        {
          "name": "_t1",
          "type": "uint256"
        },
        {
          "name": "_t2",
          "type": "uint256"
        },
        {
          "name": "_t3",
          "type": "uint256"
        },
        {
          "name": "_t4",
          "type": "uint256"
        },
        {
          "name": "_t5",
          "type": "uint256"
        },
        {
          "name": "_t6",
          "type": "uint256"
        },
        {
          "name": "_t7",
          "type": "uint256"
        },
        {
          "name": "_t8",
          "type": "uint256"
        }
      ],
      "name": "publishTune",
      "outputs": [
        {
          "name": "",
          "type": "uint256"
        }
      ],
      "payable": true,
      "stateMutability": "payable",
      "type": "function"
    },
    {
      "constant": true,
      "inputs": [
        {
          "name": "_artist",
          "type": "address"
        }
      ],
      "name": "getArtistTunes",
      "outputs": [
        {
          "name": "",
          "type": "uint256[]"
        }
      ],
      "payable": false,
      "stateMutability": "view",
      "type": "function"
    },
    {
      "constant": true,
      "inputs": [],
      "name": "getMyFavorites",
      "outputs": [
        {
          "name": "",
          "type": "uint256[]"
        }
      ],
      "payable": false,
      "stateMutability": "view",
      "type": "function"
    },
    {
      "constant": false,
      "inputs": [
        {
          "name": "_id",
          "type": "uint256"
        }
      ],
      "name": "favorite",
      "outputs": [],
      "payable": true,
      "stateMutability": "payable",
      "type": "function"
    },
    {
      "constant": false,
      "inputs": [],
      "name": "withdraw",
      "outputs": [],
      "payable": false,
      "stateMutability": "nonpayable",
      "type": "function"
    },
    {
      "constant": false,
      "inputs": [
        {
          "name": "_fee",
          "type": "uint256"
        }
      ],
      "name": "setFavoriteFee",
      "outputs": [],
      "payable": false,
      "stateMutability": "nonpayable",
      "type": "function"
    }
  ],
  "bytecode": "0x608060405260008060146101000a81548160ff02191690831515021790555066038d7ea4c6800060035534801561003557600080fd5b506000806000806000806000806000336000806101000a81548173ffffffffffffffffffffffffffffffffffffffff021916908373ffffffffffffffffffffffffffffffffffffffff160217905550336000806101000a81548173ffffffffffffffffffffffffffffffffffffffff021916908373ffffffffffffffffffffffffffffffffffffffff16021790555060405180807f47656e657369732054756e6520547261636b20310000000000000000000000008152506014019050604051809103902060019004985060405180807f47656e657369732054756e6520547261636b20320000000000000000000000008152506014019050604051809103902060019004975060405180807f47656e657369732054756e6520547261636b20330000000000000000000000008152506014019050604051809103902060019004965060405180807f47656e657369732054756e6520547261636b20340000000000000000000000008152506014019050604051809103902060019004955060405180807f47656e657369732054756e6520547261636b20350000000000000000000000008152506014019050604051809103902060019004945060405180807f47656e657369732054756e6520547261636b20360000000000000000000000008152506014019050604051809103902060019004935060405180807f47656e657369732054756e6520547261636b20370000000000000000000000008152506014019050604051809103902060019004925060405180807f47656e657369732054756e6520547261636b20380000000000000000000000008152506014019050604051809103902060019004915060016006610100604051908101604052808c81526020018b81526020018a81526020018981526020018881526020018781526020018681526020018581525090806001815401808255809150509060018203906000526020600020906008020160009091929091909150600082015181600001556020820151816001015560408201518160020155606082015181600301556080820151816004015560a0820151816005015560c0820151816006015560e082015181600701555050039050336004600083815260200190815260200160002060006101000a81548173ffffffffffffffffffffffffffffffffffffffff021916908373ffffffffffffffffffffffffffffffffffffffff160217905550600560003373ffffffffffffffffffffffffffffffffffffffff1673ffffffffffffffffffffffffffffffffffffffff16815260200190815260200160002060008154809291906001019190505550505050505050505050610f758061041c6000396000f3006080604052600436106100c5576000357c0100000000000000000000000000000000000000000000000000000000900463ffffffff1680633ccfd60b146100ca5780633f4ba83a146100e157806357e17886146100f85780635c975abb146101a45780638456cb59146101d357806386b58a45146101ea5780638da5cb5b14610264578063bd4b2940146102bb578063c132578414610327578063da7d465814610352578063e13db0b814610372578063e94b936e1461039f578063f2fde38b14610437575b600080fd5b3480156100d657600080fd5b506100df61047a565b005b3480156100ed57600080fd5b506100f6610556565b005b34801561010457600080fd5b5061012360048036038101908080359060200190929190505050610614565b604051808b81526020018a81526020018981526020018881526020018781526020018681526020018581526020018481526020018373ffffffffffffffffffffffffffffffffffffffff1673ffffffffffffffffffffffffffffffffffffffff1681526020018281526020019a505050505050505050505060405180910390f35b3480156101b057600080fd5b506101b96106f5565b604051808215151515815260200191505060405180910390f35b3480156101df57600080fd5b506101e8610708565b005b61024e60048036038101908080359060200190929190803590602001909291908035906020019092919080359060200190929190803590602001909291908035906020019092919080359060200190929190803590602001909291905050506107c8565b6040518082815260200191505060405180910390f35b34801561027057600080fd5b50610279610967565b604051808273ffffffffffffffffffffffffffffffffffffffff1673ffffffffffffffffffffffffffffffffffffffff16815260200191505060405180910390f35b3480156102c757600080fd5b506102d061098c565b6040518080602001828103825283818151815260200191508051906020019060200280838360005b838110156103135780820151818401526020810190506102f8565b505050509050019250505060405180910390f35b34801561033357600080fd5b5061033c610a21565b6040518082815260200191505060405180910390f35b61037060048036038101908080359060200190929190505050610a2e565b005b34801561037e57600080fd5b5061039d60048036038101908080359060200190929190505050610c5d565b005b3480156103ab57600080fd5b506103e0600480360381019080803573ffffffffffffffffffffffffffffffffffffffff169060200190929190505050610cc2565b6040518080602001828103825283818151815260200191508051906020019060200280838360005b83811015610423578082015181840152602081019050610408565b505050509050019250505060405180910390f35b34801561044357600080fd5b50610478600480360381019080803573ffffffffffffffffffffffffffffffffffffffff169060200190929190505050610df4565b005b6000809054906101000a900473ffffffffffffffffffffffffffffffffffffffff1673ffffffffffffffffffffffffffffffffffffffff163373ffffffffffffffffffffffffffffffffffffffff161415156104d557600080fd5b6000809054906101000a900473ffffffffffffffffffffffffffffffffffffffff1673ffffffffffffffffffffffffffffffffffffffff166108fc3073ffffffffffffffffffffffffffffffffffffffff16319081150290604051600060405180830381858888f19350505050158015610553573d6000803e3d6000fd5b50565b6000809054906101000a900473ffffffffffffffffffffffffffffffffffffffff1673ffffffffffffffffffffffffffffffffffffffff163373ffffffffffffffffffffffffffffffffffffffff161415156105b157600080fd5b600060149054906101000a900460ff1615156105cc57600080fd5b60008060146101000a81548160ff0219169083151502179055507f7805862f689e2f13df9f062ff482ad3ad112aca9e0847911ed832e158c525b3360405160405180910390a1565b600080600080600080600080600080600080600060068e81548110151561063757fe5b90600052602060002090600802019250600083600001541415151561065b57600080fd5b600460008f815260200190815260200160002060009054906101000a900473ffffffffffffffffffffffffffffffffffffffff169150600260008f81526020019081526020016000205490508260000154836001015484600201548560030154866004015487600501548860060154896007015489899c509c509c509c509c509c509c509c509c509c505050509193959799509193959799565b600060149054906101000a900460ff1681565b6000809054906101000a900473ffffffffffffffffffffffffffffffffffffffff1673ffffffffffffffffffffffffffffffffffffffff163373ffffffffffffffffffffffffffffffffffffffff1614151561076357600080fd5b600060149054906101000a900460ff1615151561077f57600080fd5b6001600060146101000a81548160ff0219169083151502179055507f6985a02210a168e66602d3235cb6db0e70f92b3ba4d376a33c0f3d9434bff62560405160405180910390a1565b600080600060149054906101000a900460ff161515156107e757600080fd5b60008a141515156107f757600080fd5b60016006610100604051908101604052808d81526020018c81526020018b81526020018a81526020018981526020018881526020018781526020018681525090806001815401808255809150509060018203906000526020600020906008020160009091929091909150600082015181600001556020820151816001015560408201518160020155606082015181600301556080820151816004015560a0820151816005015560c0820151816006015560e082015181600701555050039050336004600083815260200190815260200160002060006101000a81548173ffffffffffffffffffffffffffffffffffffffff021916908373ffffffffffffffffffffffffffffffffffffffff160217905550600560003373ffffffffffffffffffffffffffffffffffffffff1673ffffffffffffffffffffffffffffffffffffffff168152602001908152602001600020600081548092919060010191905055508091505098975050505050505050565b6000809054906101000a900473ffffffffffffffffffffffffffffffffffffffff1681565b6060600160003373ffffffffffffffffffffffffffffffffffffffff1673ffffffffffffffffffffffffffffffffffffffff168152602001908152602001600020805480602002602001604051908101604052809291908181526020018280548015610a1757602002820191906000526020600020905b815481526020019060010190808311610a03575b5050505050905090565b6000600680549050905090565b600080600060149054906101000a900460ff16151515610a4d57600080fd5b600683815481101515610a5c57fe5b906000526020600020906008020191506000826000015414151515610a8057600080fd5b6003543410151515610a9157600080fd5b600090505b600160003373ffffffffffffffffffffffffffffffffffffffff1673ffffffffffffffffffffffffffffffffffffffff16815260200190815260200160002080549050811015610b5257600160003373ffffffffffffffffffffffffffffffffffffffff1673ffffffffffffffffffffffffffffffffffffffff16815260200190815260200160002081815481101515610b2c57fe5b90600052602060002001548314151515610b4557600080fd5b8080600101915050610a96565b60026000848152602001908152602001600020600081548092919060010191905055506004600084815260200190815260200160002060009054906101000a900473ffffffffffffffffffffffffffffffffffffffff1673ffffffffffffffffffffffffffffffffffffffff166108fc349081150290604051600060405180830381858888f19350505050158015610bee573d6000803e3d6000fd5b50600160003373ffffffffffffffffffffffffffffffffffffffff1673ffffffffffffffffffffffffffffffffffffffff168152602001908152602001600020839080600181540180825580915050906001820390600052602060002001600090919290919091505550505050565b6000809054906101000a900473ffffffffffffffffffffffffffffffffffffffff1673ffffffffffffffffffffffffffffffffffffffff163373ffffffffffffffffffffffffffffffffffffffff16141515610cb857600080fd5b8060038190555050565b606080600080600560008673ffffffffffffffffffffffffffffffffffffffff1673ffffffffffffffffffffffffffffffffffffffff16815260200190815260200160002054604051908082528060200260200182016040528015610d365781602001602082028038833980820191505090505b50925060009150600090505b600680549050811015610de9578473ffffffffffffffffffffffffffffffffffffffff166004600083815260200190815260200160002060009054906101000a900473ffffffffffffffffffffffffffffffffffffffff1673ffffffffffffffffffffffffffffffffffffffff161415610ddc57808383815181101515610dc557fe5b906020019060200201818152505081806001019250505b8080600101915050610d42565b829350505050919050565b6000809054906101000a900473ffffffffffffffffffffffffffffffffffffffff1673ffffffffffffffffffffffffffffffffffffffff163373ffffffffffffffffffffffffffffffffffffffff16141515610e4f57600080fd5b600073ffffffffffffffffffffffffffffffffffffffff168173ffffffffffffffffffffffffffffffffffffffff1614151515610e8b57600080fd5b8073ffffffffffffffffffffffffffffffffffffffff166000809054906101000a900473ffffffffffffffffffffffffffffffffffffffff1673ffffffffffffffffffffffffffffffffffffffff167f8be0079c531659141344cd1fd0a4f28419497f9722a3daafe3b4186f6b6457e060405160405180910390a3806000806101000a81548173ffffffffffffffffffffffffffffffffffffffff021916908373ffffffffffffffffffffffffffffffffffffffff160217905550505600a165627a7a72305820ac766b9ff2b0a35e1379458501d475310946a01809dc2cdaeb6a0237a865cd070029",
  "source": "pragma solidity ^0.4.18;\n\nimport 'zeppelin-solidity/contracts/lifecycle/Pausable.sol';\n\ncontract CryptoTunes is Pausable {\n  struct Tune {\n    uint t1;\n    uint t2;\n    uint t3;\n    uint t4;\n    uint t5;\n    uint t6;\n    uint t7;\n    uint t8;\n  }\n\n  mapping(address => uint[]) myFavorites;\n  mapping(uint => uint) favoriteCount;\n  uint favoriteFee = 0.001 ether;\n  mapping(uint => address) tuneOwner;\n  mapping(address => uint) artistTuneCount;\n  Tune[] tunes;\n\n  function CryptoTunes() public {\n    owner = msg.sender;\n    uint _t1 = uint(keccak256(\"Genesis Tune Track 1\"));\n    uint _t2 = uint(keccak256(\"Genesis Tune Track 2\"));\n    uint _t3 = uint(keccak256(\"Genesis Tune Track 3\"));\n    uint _t4 = uint(keccak256(\"Genesis Tune Track 4\"));\n    uint _t5 = uint(keccak256(\"Genesis Tune Track 5\"));\n    uint _t6 = uint(keccak256(\"Genesis Tune Track 6\"));\n    uint _t7 = uint(keccak256(\"Genesis Tune Track 7\"));\n    uint _t8 = uint(keccak256(\"Genesis Tune Track 8\"));\n\n    uint tuneId = tunes.push(Tune(_t1, _t2, _t3, _t4, _t5, _t6, _t7, _t8)) - 1;\n    tuneOwner[tuneId] = msg.sender;\n    artistTuneCount[msg.sender]++;\n  }\n\n  function getTune(uint _id) public view returns(\n    uint, uint, uint, uint,\n    uint, uint, uint, uint,\n    address, uint) {\n    Tune storage tune = tunes[_id];\n    require(tune.t1 != 0);\n    address thisTuneOwner = tuneOwner[_id];\n    uint favCount = favoriteCount[_id];\n    return (tune.t1, tune.t2, tune.t3, tune.t4,\n    tune.t5, tune.t6, tune.t7, tune.t8,\n    thisTuneOwner, favCount);\n  }\n\n  function getTunesLength() public view returns (uint) {\n    return tunes.length;\n  }\n\n  function publishTune(uint _t1, uint _t2, uint _t3, uint _t4,\n    uint _t5, uint _t6, uint _t7, uint _t8) whenNotPaused external payable returns (uint) {\n    require(_t1 != 0);\n    uint tuneId = tunes.push(Tune(_t1, _t2, _t3, _t4, _t5, _t6, _t7, _t8)) - 1;\n    tuneOwner[tuneId] = msg.sender;\n    artistTuneCount[msg.sender]++;\n    return tuneId;\n  }\n\n  function getArtistTunes(address _artist) public view returns(uint[]) {\n    uint[] memory theseTunes = new uint[](artistTuneCount[_artist]);\n    uint inc = 0;\n    for (uint i = 0; i < tunes.length; i++) {\n      if (tuneOwner[i] == _artist) {\n        theseTunes[inc] = i;\n        inc++;\n      }\n    }\n    return theseTunes;\n  }\n\n  function getMyFavorites() public view returns(uint[]) {\n    return myFavorites[msg.sender];\n  }\n\n  function favorite(uint _id) whenNotPaused external payable {\n    Tune storage tune = tunes[_id];\n    require(tune.t1 != 0);\n    require(msg.value >= favoriteFee);\n    for (uint i = 0; i < myFavorites[msg.sender].length; i++) {\n      require(_id != myFavorites[msg.sender][i]);\n    }\n    favoriteCount[_id]++;\n    tuneOwner[_id].transfer(msg.value);\n    myFavorites[msg.sender].push(_id);\n  }\n\n  function withdraw() external onlyOwner {\n    owner.transfer(this.balance);\n  }\n\n  function setFavoriteFee(uint _fee) external onlyOwner {\n    favoriteFee = _fee;\n  }\n}\n",
  "sourcePath": "/Users/HugoKang/Desktop/source-master/contracts/CryptoTunes.sol",
  "compiler": {
    "name": "solc",
    "version": "0.4.23+commit.124ca40d.Emscripten.clang"
  },
  "schemaVersion": "2.0.0",
  "updatedAt": "2018-05-21T14:55:06.681Z"
}